{
  "_format": "hh-sol-artifact-1",
  "contractName": "DigiLocker",
  "sourceName": "contracts/DecentralizedDigiLocker.sol",
  "abi": [
    {
      "anonymous": false,
      "inputs": [
        {
          "indexed": true,
          "internalType": "uint256",
          "name": "documentId",
          "type": "uint256"
        },
        {
          "indexed": true,
          "internalType": "address",
          "name": "grantee",
          "type": "address"
        }
      ],
      "name": "AccessGranted",
      "type": "event"
    },
    {
      "anonymous": false,
      "inputs": [
        {
          "indexed": true,
          "internalType": "uint256",
          "name": "documentId",
          "type": "uint256"
        },
        {
          "indexed": true,
          "internalType": "address",
          "name": "grantee",
          "type": "address"
        }
      ],
      "name": "AccessRevoked",
      "type": "event"
    },
    {
      "anonymous": false,
      "inputs": [
        {
          "indexed": true,
          "internalType": "uint256",
          "name": "documentId",
          "type": "uint256"
        },
        {
          "indexed": true,
          "internalType": "address",
          "name": "user",
          "type": "address"
        }
      ],
      "name": "DocumentAccessed",
      "type": "event"
    },
    {
      "anonymous": false,
      "inputs": [
        {
          "indexed": true,
          "internalType": "uint256",
          "name": "documentId",
          "type": "uint256"
        },
        {
          "indexed": true,
          "internalType": "address",
          "name": "owner",
          "type": "address"
        },
        {
          "indexed": false,
          "internalType": "string",
          "name": "ipfsHash",
          "type": "string"
        },
        {
          "indexed": false,
          "internalType": "string",
          "name": "category",
          "type": "string"
        }
      ],
      "name": "DocumentAdded",
      "type": "event"
    },
    {
      "inputs": [],
      "name": "documentCounter",
      "outputs": [
        {
          "internalType": "uint256",
          "name": "",
          "type": "uint256"
        }
      ],
      "stateMutability": "view",
      "type": "function"
    },
    {
      "inputs": [
        {
          "internalType": "uint256",
          "name": "_docId",
          "type": "uint256"
        }
      ],
      "name": "getDocument",
      "outputs": [
        {
          "internalType": "string",
          "name": "",
          "type": "string"
        },
        {
          "internalType": "string",
          "name": "",
          "type": "string"
        },
        {
          "internalType": "address",
          "name": "",
          "type": "address"
        },
        {
          "internalType": "uint256",
          "name": "",
          "type": "uint256"
        }
      ],
      "stateMutability": "view",
      "type": "function"
    },
    {
      "inputs": [
        {
          "internalType": "uint256",
          "name": "_docId",
          "type": "uint256"
        },
        {
          "internalType": "address",
          "name": "_user",
          "type": "address"
        }
      ],
      "name": "grantAccess",
      "outputs": [],
      "stateMutability": "nonpayable",
      "type": "function"
    },
    {
      "inputs": [
        {
          "internalType": "string",
          "name": "_ipfsHash",
          "type": "string"
        },
        {
          "internalType": "string",
          "name": "_category",
          "type": "string"
        }
      ],
      "name": "uploadDocument",
      "outputs": [],
      "stateMutability": "nonpayable",
      "type": "function"
    }
  ],
  "bytecode": "0x608060405234801561001057600080fd5b50612161806100206000396000f3fe608060405234801561001057600080fd5b50600436106100935760003560e01c806358f313bb1161006657806358f313bb1461013357806365dd152c1461015157806390a4b1621461016d578063c2ed2b051461019d578063d9a5ec1b146101d157610093565b80630b6abe8b1461009857806329507f73146100c85780633f9b250a146100e45780634464fe3314610117575b600080fd5b6100b260048036038101906100ad9190611437565b6101ed565b6040516100bf9190611554565b60405180910390f35b6100e260048036038101906100dd91906115a2565b610335565b005b6100fe60048036038101906100f99190611437565b610717565b60405161010e9493929190611690565b60405180910390f35b610131600480360381019061012c9190611818565b6109c6565b005b61013b610b75565b6040516101489190611890565b60405180910390f35b61016b600480360381019061016691906115a2565b610b7b565b005b610187600480360381019061018291906118ab565b610e58565b6040516101949190611996565b60405180910390f35b6101b760048036038101906101b29190611437565b610eef565b6040516101c89594939291906119b8565b60405180910390f35b6101eb60048036038101906101e691906115a2565b611055565b005b6060813373ffffffffffffffffffffffffffffffffffffffff1660008083815260200190815260200160002060020160009054906101000a900473ffffffffffffffffffffffffffffffffffffffff1673ffffffffffffffffffffffffffffffffffffffff1614610293576040517f08c379a000000000000000000000000000000000000000000000000000000000815260040161028a90611a65565b60405180910390fd5b60008084815260200190815260200160002060050180548060200260200160405190810160405280929190818152602001828054801561032857602002820191906000526020600020905b8160009054906101000a900473ffffffffffffffffffffffffffffffffffffffff1673ffffffffffffffffffffffffffffffffffffffff16815260200190600101908083116102de575b5050505050915050919050565b813373ffffffffffffffffffffffffffffffffffffffff1660008083815260200190815260200160002060020160009054906101000a900473ffffffffffffffffffffffffffffffffffffffff1673ffffffffffffffffffffffffffffffffffffffff16146103d9576040517f08c379a00000000000000000000000000000000000000000000000000000000081526004016103d090611a65565b60405180910390fd5b600073ffffffffffffffffffffffffffffffffffffffff168273ffffffffffffffffffffffffffffffffffffffff1603610448576040517f08c379a000000000000000000000000000000000000000000000000000000000815260040161043f90611ad1565b60405180910390fd5b3373ffffffffffffffffffffffffffffffffffffffff168273ffffffffffffffffffffffffffffffffffffffff16036104b6576040517f08c379a00000000000000000000000000000000000000000000000000000000081526004016104ad90611b3d565b60405180910390fd5b600080600085815260200190815260200160002060020160009054906101000a900473ffffffffffffffffffffffffffffffffffffffff1690508260008086815260200190815260200160002060020160006101000a81548173ffffffffffffffffffffffffffffffffffffffff021916908373ffffffffffffffffffffffffffffffffffffffff1602179055506000600160008373ffffffffffffffffffffffffffffffffffffffff1673ffffffffffffffffffffffffffffffffffffffff16815260200190815260200160002090506000600160008673ffffffffffffffffffffffffffffffffffffffff1673ffffffffffffffffffffffffffffffffffffffff168152602001908152602001600020905060005b828054905081101561068b57868382815481106105ed576105ec611b5d565b5b90600052602060002001540361067857826001848054905061060f9190611bbb565b815481106106205761061f611b5d565b5b906000526020600020015483828154811061063e5761063d611b5d565b5b90600052602060002001819055508280548061065d5761065c611bef565b5b6001900381819060005260206000200160009055905561068b565b808061068390611c1e565b9150506105cd565b50808690806001815401808255809150506001900390600052602060002001600090919091909150558473ffffffffffffffffffffffffffffffffffffffff168373ffffffffffffffffffffffffffffffffffffffff16877f16b85f49bf01212961345d3016c9a531894accf62eb7680f2045d79185cc0ec060405160405180910390a4505050505050565b6060806000808460008082815260200190815260200160002060020160009054906101000a900473ffffffffffffffffffffffffffffffffffffffff1673ffffffffffffffffffffffffffffffffffffffff163373ffffffffffffffffffffffffffffffffffffffff1614806107e9575060008082815260200190815260200160002060060160003373ffffffffffffffffffffffffffffffffffffffff1673ffffffffffffffffffffffffffffffffffffffff16815260200190815260200160002060009054906101000a900460ff165b610828576040517f08c379a000000000000000000000000000000000000000000000000000000000815260040161081f90611cb2565b60405180910390fd5b60008087815260200190815260200160002060010160008088815260200190815260200160002060030160008089815260200190815260200160002060020160009054906101000a900473ffffffffffffffffffffffffffffffffffffffff166000808a8152602001908152602001600020600401548380546108aa90611d01565b80601f01602080910402602001604051908101604052809291908181526020018280546108d690611d01565b80156109235780601f106108f857610100808354040283529160200191610923565b820191906000526020600020905b81548152906001019060200180831161090657829003601f168201915b5050505050935082805461093690611d01565b80601f016020809104026020016040519081016040528092919081815260200182805461096290611d01565b80156109af5780601f10610984576101008083540402835291602001916109af565b820191906000526020600020905b81548152906001019060200180831161099257829003601f168201915b505050505092509450945094509450509193509193565b6000825111610a0a576040517f08c379a0000000000000000000000000000000000000000000000000000000008152600401610a0190611d7e565b60405180910390fd5b60026000815480929190610a1d90611c1e565b9190505550600080600060025481526020019081526020016000209050600254816000018190555082816001019081610a569190611f4a565b50338160020160006101000a81548173ffffffffffffffffffffffffffffffffffffffff021916908373ffffffffffffffffffffffffffffffffffffffff16021790555081816003019081610aab9190611f4a565b50428160040181905550600160003373ffffffffffffffffffffffffffffffffffffffff1673ffffffffffffffffffffffffffffffffffffffff16815260200190815260200160002060025490806001815401808255809150506001900390600052602060002001600090919091909150553373ffffffffffffffffffffffffffffffffffffffff166002547f52df66f33d7792600ebcdf46149bdf5c55d5f288116f5abbc0dd194bf992ba208585604051610b6892919061201c565b60405180910390a3505050565b60025481565b813373ffffffffffffffffffffffffffffffffffffffff1660008083815260200190815260200160002060020160009054906101000a900473ffffffffffffffffffffffffffffffffffffffff1673ffffffffffffffffffffffffffffffffffffffff1614610c1f576040517f08c379a0000000000000000000000000000000000000000000000000000000008152600401610c1690611a65565b60405180910390fd5b600073ffffffffffffffffffffffffffffffffffffffff168273ffffffffffffffffffffffffffffffffffffffff1603610c8e576040517f08c379a0000000000000000000000000000000000000000000000000000000008152600401610c8590611ad1565b60405180910390fd5b60008084815260200190815260200160002060060160008373ffffffffffffffffffffffffffffffffffffffff1673ffffffffffffffffffffffffffffffffffffffff16815260200190815260200160002060009054906101000a900460ff1615610d2e576040517f08c379a0000000000000000000000000000000000000000000000000000000008152600401610d259061209f565b60405180910390fd5b600160008085815260200190815260200160002060060160008473ffffffffffffffffffffffffffffffffffffffff1673ffffffffffffffffffffffffffffffffffffffff16815260200190815260200160002060006101000a81548160ff021916908315150217905550600080848152602001908152602001600020600501829080600181540180825580915050600190039060005260206000200160009091909190916101000a81548173ffffffffffffffffffffffffffffffffffffffff021916908373ffffffffffffffffffffffffffffffffffffffff1602179055508173ffffffffffffffffffffffffffffffffffffffff16837f3c3a9147a1fc73dd51a32f4d10c43d457e8cb826eb6f35cac6349eb965ba82b460405160405180910390a3505050565b6060600160008373ffffffffffffffffffffffffffffffffffffffff1673ffffffffffffffffffffffffffffffffffffffff168152602001908152602001600020805480602002602001604051908101604052809291908181526020018280548015610ee357602002820191906000526020600020905b815481526020019060010190808311610ecf575b50505050509050919050565b6000602052806000526040600020600091509050806000015490806001018054610f1890611d01565b80601f0160208091040260200160405190810160405280929190818152602001828054610f4490611d01565b8015610f915780601f10610f6657610100808354040283529160200191610f91565b820191906000526020600020905b815481529060010190602001808311610f7457829003601f168201915b5050505050908060020160009054906101000a900473ffffffffffffffffffffffffffffffffffffffff1690806003018054610fcc90611d01565b80601f0160208091040260200160405190810160405280929190818152602001828054610ff890611d01565b80156110455780601f1061101a57610100808354040283529160200191611045565b820191906000526020600020905b81548152906001019060200180831161102857829003601f168201915b5050505050908060040154905085565b813373ffffffffffffffffffffffffffffffffffffffff1660008083815260200190815260200160002060020160009054906101000a900473ffffffffffffffffffffffffffffffffffffffff1673ffffffffffffffffffffffffffffffffffffffff16146110f9576040517f08c379a00000000000000000000000000000000000000000000000000000000081526004016110f090611a65565b60405180910390fd5b60008084815260200190815260200160002060060160008373ffffffffffffffffffffffffffffffffffffffff1673ffffffffffffffffffffffffffffffffffffffff16815260200190815260200160002060009054906101000a900460ff16611198576040517f08c379a000000000000000000000000000000000000000000000000000000000815260040161118f9061210b565b60405180910390fd5b600080600085815260200190815260200160002060060160008473ffffffffffffffffffffffffffffffffffffffff1673ffffffffffffffffffffffffffffffffffffffff16815260200190815260200160002060006101000a81548160ff0219169083151502179055506000806000858152602001908152602001600020600501905060005b81805490508110156113a2578373ffffffffffffffffffffffffffffffffffffffff1682828154811061125557611254611b5d565b5b9060005260206000200160009054906101000a900473ffffffffffffffffffffffffffffffffffffffff1673ffffffffffffffffffffffffffffffffffffffff160361138f5781600183805490506112ad9190611bbb565b815481106112be576112bd611b5d565b5b9060005260206000200160009054906101000a900473ffffffffffffffffffffffffffffffffffffffff168282815481106112fc576112fb611b5d565b5b9060005260206000200160006101000a81548173ffffffffffffffffffffffffffffffffffffffff021916908373ffffffffffffffffffffffffffffffffffffffff1602179055508180548061135557611354611bef565b5b6001900381819060005260206000200160006101000a81549073ffffffffffffffffffffffffffffffffffffffff021916905590556113a2565b808061139a90611c1e565b91505061121f565b508273ffffffffffffffffffffffffffffffffffffffff16847f125883b94692baebecad9f111ed97ffa626523bbbadc6b0ef85ee1b56b9e52d560405160405180910390a350505050565b6000604051905090565b600080fd5b600080fd5b6000819050919050565b61141481611401565b811461141f57600080fd5b50565b6000813590506114318161140b565b92915050565b60006020828403121561144d5761144c6113f7565b5b600061145b84828501611422565b91505092915050565b600081519050919050565b600082825260208201905092915050565b6000819050602082019050919050565b600073ffffffffffffffffffffffffffffffffffffffff82169050919050565b60006114bb82611490565b9050919050565b6114cb816114b0565b82525050565b60006114dd83836114c2565b60208301905092915050565b6000602082019050919050565b600061150182611464565b61150b818561146f565b935061151683611480565b8060005b8381101561154757815161152e88826114d1565b9750611539836114e9565b92505060018101905061151a565b5085935050505092915050565b6000602082019050818103600083015261156e81846114f6565b905092915050565b61157f816114b0565b811461158a57600080fd5b50565b60008135905061159c81611576565b92915050565b600080604083850312156115b9576115b86113f7565b5b60006115c785828601611422565b92505060206115d88582860161158d565b9150509250929050565b600081519050919050565b600082825260208201905092915050565b60005b8381101561161c578082015181840152602081019050611601565b60008484015250505050565b6000601f19601f8301169050919050565b6000611644826115e2565b61164e81856115ed565b935061165e8185602086016115fe565b61166781611628565b840191505092915050565b61167b816114b0565b82525050565b61168a81611401565b82525050565b600060808201905081810360008301526116aa8187611639565b905081810360208301526116be8186611639565b90506116cd6040830185611672565b6116da6060830184611681565b95945050505050565b600080fd5b600080fd5b7f4e487b7100000000000000000000000000000000000000000000000000000000600052604160045260246000fd5b61172582611628565b810181811067ffffffffffffffff82111715611744576117436116ed565b5b80604052505050565b60006117576113ed565b9050611763828261171c565b919050565b600067ffffffffffffffff821115611783576117826116ed565b5b61178c82611628565b9050602081019050919050565b82818337600083830152505050565b60006117bb6117b684611768565b61174d565b9050828152602081018484840111156117d7576117d66116e8565b5b6117e2848285611799565b509392505050565b600082601f8301126117ff576117fe6116e3565b5b813561180f8482602086016117a8565b91505092915050565b6000806040838503121561182f5761182e6113f7565b5b600083013567ffffffffffffffff81111561184d5761184c6113fc565b5b611859858286016117ea565b925050602083013567ffffffffffffffff81111561187a576118796113fc565b5b611886858286016117ea565b9150509250929050565b60006020820190506118a56000830184611681565b92915050565b6000602082840312156118c1576118c06113f7565b5b60006118cf8482850161158d565b91505092915050565b600081519050919050565b600082825260208201905092915050565b6000819050602082019050919050565b61190d81611401565b82525050565b600061191f8383611904565b60208301905092915050565b6000602082019050919050565b6000611943826118d8565b61194d81856118e3565b9350611958836118f4565b8060005b838110156119895781516119708882611913565b975061197b8361192b565b92505060018101905061195c565b5085935050505092915050565b600060208201905081810360008301526119b08184611938565b905092915050565b600060a0820190506119cd6000830188611681565b81810360208301526119df8187611639565b90506119ee6040830186611672565b8181036060830152611a008185611639565b9050611a0f6080830184611681565b9695505050505050565b7f4e6f742074686520646f63756d656e74206f776e657200000000000000000000600082015250565b6000611a4f6016836115ed565b9150611a5a82611a19565b602082019050919050565b60006020820190508181036000830152611a7e81611a42565b9050919050565b7f496e76616c696420616464726573730000000000000000000000000000000000600082015250565b6000611abb600f836115ed565b9150611ac682611a85565b602082019050919050565b60006020820190508181036000830152611aea81611aae565b9050919050565b7f596f752061726520616c726561647920746865206f776e657200000000000000600082015250565b6000611b276019836115ed565b9150611b3282611af1565b602082019050919050565b60006020820190508181036000830152611b5681611b1a565b9050919050565b7f4e487b7100000000000000000000000000000000000000000000000000000000600052603260045260246000fd5b7f4e487b7100000000000000000000000000000000000000000000000000000000600052601160045260246000fd5b6000611bc682611401565b9150611bd183611401565b9250828203905081811115611be957611be8611b8c565b5b92915050565b7f4e487b7100000000000000000000000000000000000000000000000000000000600052603160045260246000fd5b6000611c2982611401565b91507fffffffffffffffffffffffffffffffffffffffffffffffffffffffffffffffff8203611c5b57611c5a611b8c565b5b600182019050919050565b7f4e6f2061636365737320746f207468697320646f63756d656e74000000000000600082015250565b6000611c9c601a836115ed565b9150611ca782611c66565b602082019050919050565b60006020820190508181036000830152611ccb81611c8f565b9050919050565b7f4e487b7100000000000000000000000000000000000000000000000000000000600052602260045260246000fd5b60006002820490506001821680611d1957607f821691505b602082108103611d2c57611d2b611cd2565b5b50919050565b7f496e76616c696420495046532068617368000000000000000000000000000000600082015250565b6000611d686011836115ed565b9150611d7382611d32565b602082019050919050565b60006020820190508181036000830152611d9781611d5b565b9050919050565b60008190508160005260206000209050919050565b60006020601f8301049050919050565b600082821b905092915050565b600060088302611e007fffffffffffffffffffffffffffffffffffffffffffffffffffffffffffffffff82611dc3565b611e0a8683611dc3565b95508019841693508086168417925050509392505050565b6000819050919050565b6000611e47611e42611e3d84611401565b611e22565b611401565b9050919050565b6000819050919050565b611e6183611e2c565b611e75611e6d82611e4e565b848454611dd0565b825550505050565b600090565b611e8a611e7d565b611e95818484611e58565b505050565b5b81811015611eb957611eae600082611e82565b600181019050611e9b565b5050565b601f821115611efe57611ecf81611d9e565b611ed884611db3565b81016020851015611ee7578190505b611efb611ef385611db3565b830182611e9a565b50505b505050565b600082821c905092915050565b6000611f2160001984600802611f03565b1980831691505092915050565b6000611f3a8383611f10565b9150826002028217905092915050565b611f53826115e2565b67ffffffffffffffff811115611f6c57611f6b6116ed565b5b611f768254611d01565b611f81828285611ebd565b600060209050601f831160018114611fb45760008415611fa2578287015190505b611fac8582611f2e565b865550612014565b601f198416611fc286611d9e565b60005b82811015611fea57848901518255600182019150602085019450602081019050611fc5565b868310156120075784890151612003601f891682611f10565b8355505b6001600288020188555050505b505050505050565b600060408201905081810360008301526120368185611639565b9050818103602083015261204a8184611639565b90509392505050565b7f41636365737320616c7265616479206772616e74656400000000000000000000600082015250565b60006120896016836115ed565b915061209482612053565b602082019050919050565b600060208201905081810360008301526120b88161207c565b9050919050565b7f5573657220646f6573206e6f7420686176652061636365737300000000000000600082015250565b60006120f56019836115ed565b9150612100826120bf565b602082019050919050565b60006020820190508181036000830152612124816120e8565b905091905056fea2646970667358221220ffec14960ee41b102396e8a4227a82080e8b5b9257222a78fbd836321416ad1d64736f6c63430008140033",
  "linkReferences": {},
  "deployedLinkReferences": {}
}